:020000040800F2
:10000000C0C700202D02000831020008330200089A
:10001000350200083702000839020008000000001D
:100020000000000000000000000000003B0200088B
:100030003D020008000000003F02000841020008E5
:10004000430200084302000843020008430200087C
:100050004302000843020008650B00084302000841
:10006000430200089D0B0008D50B0008430200085E
:10007000430200084302000843020008430200084C
:10008000430200084302000843020008430200083C
:10009000430200084302000843020008210C000844
:1000A000430200084302000843020008430200081C
:1000B000430200087D0C0008B90C00084302000848
:1000C00043020008430200084302000843020008FC
:1000D00043020008950E000843020008430200088E
:1000E00043020008430200084302000843020008DC
:1000F00043020008430200084302000843020008CC
:1001000043020008430200084302000843020008BB
:100110004302000843020008510E00084302000891
:10012000430200084302000843020008430200089B
:1001300000F002F800F06BF80AA090E8000C82448E
:100140008344AAF10107DA4501D100F060F8AFF26B
:10015000090EBAE80F0013F0010F18BFFB1A43F0A5
:1001600001031847303F0100503F01000A444FF09F
:10017000000C10F8013B13F0070408BF10F8014B06
:100180001D1108BF10F8015B641E05D010F8016B4B
:10019000641E01F8016BF9D113F0080F1EBF10F8AF
:1001A000014BAD1C0C1B09D16D1E58BF01F801CBD2
:1001B000FAD505E014F8016B01F8016B6D1EF9D555
:1001C0009142D6D37047000000230024002500266A
:1001D000103A28BF78C1FBD8520728BF30C148BFAA
:1001E0000B607047642900F04981752900F0468151
:1001F000782900F07F81632900F05F84732900F083
:100200006484002070471FB51FBD10B510BD00F0FD
:1002100077FC1146FFF7F7FF09F0ACFA00F095FC08
:1002200003B4FFF7F2FF03BC00F07DFE084800476F
:10023000FEE7FEE7FEE7FEE7FEE7FEE7FEE7FEE796
:10024000FEE7FEE703480449044A054B70470000F7
:1002500031010008C0C10020C0C70020C0C3002079
:10026000C0C30020704753EA020C00F069802DE9FA
:10027000F04B4FF00006002B1FBFB3FA83F503FAD3
:1002800005F424FA05F65E4012BF1643B2FA82F571
:1002900002FA05F4C5F120051EBF22FA05FC44EA66
:1002A0000C04203556EA044C4FEA144418BF641C71
:1002B0004FF000084FF00009904271EB030C39D366
:1002C000002919BFB1FA81F701FA07F6B0FA80F7F1
:1002D00000FA07F6C7F120071EBF20FA07FC46EA1E
:1002E0000C062037B6FBF4FCA7EB0507103F07F020
:1002F0001F0BCBF120060CFA0BFB2CFA06F644BFC1
:10030000B3460026202FA4BF5E464FF0000B5BEAE9
:10031000060C08BF4FF0010B19EB0B09ABFB027C7D
:1003200048EB0608C01B06FB02CC0BFB03CC71EBB1
:100330000C01C1E70B46024641464846BDE8F08B3A
:1003400013B54FF000004FF00001AFF30080BDE89F
:100350001C40704710B54C1084EA530404D5404249
:10036000C1F1000138BF491E1B4204D55242C3F1FE
:10037000000338BF5B1EFFF776FF14F0804F04D0F8
:100380004042C1F1000138BF491E14F0004F04D0B3
:100390005242C3F1000338BF5B1E10BD0FB40449C5
:1003A00010B503AA029800F095FB10BC5DF814FB91
:1003B0003C0000200FB41CB5074B06AA7B446946DD
:1003C0000090059800F057FB0020694600F066FB9E
:1003D0001CBC5DF814FB0000DD06000070B504468F
:1003E00085690068C10601D5302600E02026C007D7
:1003F00007D070BDD4E9012130469047206A401CE7
:1004000020626D1EF6D570BD70B504468569007812
:10041000C00707D170BDD4E9012120209047206A90
:10042000401C20626D1EF6D570BD70B50C460546A9
:10043000012A05D02878800600D5EA69002302E069
:10044000012305E05B1C934202D2E05C0028F9D155
:10045000A869E618C01AA861286A184428622846C4
:10046000FFF7BCFF04E0D5E9012114F8010B904728
:10047000B442F8D32846FFF7C7FF70BD2DE9F0411D
:100480000646002410687529314616A510D0AFF332
:100490000080002802DA404213A507E031688A078D
:1004A00001D512A502E0490704D511A5012401E0F8
:1004B000AFF3008000210A2206F1240709E0B0FB17
:1004C000F2FCB0FBF2F302FB1C003030785418460B
:1004D000491C0028F3D123462A463046BDE8F041A6
:1004E00000F06ABA000000002D0000002B000000A0
:1004F0002000000070B504460D4621461068AFF399
:1005000000802188090502D50F4A7A4402E00E4A8C
:100510007A440E32002104F1240305E000F00F06B6
:100520000009965D5E54491C0028F7D1207800230D
:10053000000704D5702D02D009B1022311322046E4
:10054000BDE8704000F038BA403801002DE9F05F96
:10055000894604464FF0000ADFF874B1FB44C0F846
:1005600020A02046E1688847002874D0252806D0BE
:10057000D4E901219047206A401C2062F1E700265F
:100580005F462046E16888472028054607DB312D75
:1005900005D2781910F8200C08B10643F1E7B0072E
:1005A00001D526F00406C4F81CA00027C4F818A042
:1005B0002A2D09D0284600F0AFFC38B304EB870899
:1005C000303DC8F8185019E059F8041B204604EBD8
:1005D00087029161E1688847012F054618D1E069DB
:1005E000002820DA26F020061DE0D8F8180000EBDD
:1005F000800005EB40003038C8F818002046E1685C
:100600008847054600F088FC0028EED1012F0AD06B
:100610002E2D08D12046E16888477F1C0546022F11
:1006200046F02006C4DBA069002803DA404246F009
:100630000106A061F00701D026F010066C2D0BD04A
:10064000682D09D04C2D39D06A2D35D0742D35D078
:100650007A2D33D016E038E0E1682F4620468847EF
:10066000B842054609D16C2F26D04FF48060E1686E
:10067000064320468847054604E06C2F1AD04FF405
:10068000807006430DB3A5F14100192802D820352A
:1006900046F400664A462946204626604E46FFF745
:1006A000A1FD80B101280BD0F61D26F0070000F156
:1006B000080956E74020E4E78020D8E70020D6E785
:1006C00006F104094DE7284652E7206ABDE8F09F8D
:1006D00016380100401ECAB210F8011F8A4202D02B
:1006E0000029F9D10020704740EA010310B59B07AB
:1006F0000FD1042A0DD310C808C9121F9C42F8D08C
:1007000020BA19BA884201D9012010BD4FF0FF303C
:1007100010BD1AB1D30703D0521C07E0002010BD52
:1007200010F8013B11F8014B1B1B07D110F8013BDE
:1007300011F8014B1B1B01D1921EF1D1184610BDBF
:1007400040EA0103024630B59B0710D14FF0013457
:1007500000E008C208C91D1B9D4315EAC41FF8D05C
:1007600013F0FF0102F8011B0DD01B0AF8E711F886
:10077000013B002B02F8013B05D011F8013B002B97
:1007800002F8013BF3D130BD421E12F8013F002BAD
:10079000FBD111F8013B002B02F8013BF9D1704766
:1007A000032A40F2308010F0030C00F0158011F89D
:1007B000013BBCF1020F624498BF11F801CB00F875
:1007C000013B38BF11F8013BA2F1040298BF00F8C9
:1007D00001CB38BF00F8013B11F0030300F0258086
:1007E000083AC0F0088051F8043B083A51F804CBAD
:1007F000A0E80810F5E7121D5CBF51F8043B40F873
:10080000043BAFF30080D20724BF11F8013B11F87D
:1008100001CB48BF11F8012B24BF00F8013B00F8C1
:1008200001CB48BF00F8012B704710B5203AC0F04B
:100830000B80B1E81850203AA0E81850B1E81850E1
:10084000A0E81850BFF4F5AF5FEA027C24BFB1E81E
:100850001850A0E8185044BF18C918C0BDE810408F
:100860005FEA827C24BF51F8043B40F8043B08BF98
:100870007047D20728BF31F8023B48BF11F8012B5F
:1008800028BF20F8023B48BF00F8012B704702F058
:10089000FF0343EA032242EA024200F002B84FF0AB
:1008A00000020429C0F0128010F0030C00F01B803D
:1008B000CCF1040CBCF1020F18BF00F8012BA8BF4B
:1008C00020F8022BA1EB0C0100F00DB85FEAC17C0F
:1008D00024BF00F8012B00F8012B48BF00F8012BC2
:1008E00070474FF0000200B51346944696462039F3
:1008F00022BFA0E80C50A0E80C50B1F12001BFF4D9
:10090000F7AF090728BFA0E80C5048BF0CC05DF83E
:1009100004EB890028BF40F8042B08BF704748BF8C
:1009200020F8022B11F0804F18BF00F8012B704700
:100930004FF0013C50F8042B51F8043B9A4221D16E
:10094000A2EB0C03934313EACC1317D150F8042BFA
:1009500051F8043B9A4215D1A2EB0C03934313EADE
:10096000CC130BD150F8042B51F8043B9A4209D117
:10097000A2EB0C03934313EACC13DBD04FF000003F
:10098000704700BFD01A01BAB1FA81F101F0180125
:1009900022FA01F0CB40C1F12001DBB2C0B2C01A93
:1009A0002CFA01F3D11A914311EAC311E6D1704731
:1009B00070477047704770472DE9F0470D469946DC
:1009C0009246044600F124080168880604D5E069CF
:1009D00021F01001216000E00120A84201DD471B49
:1009E00000E00027A1697A1902EB0900081AA0614A
:1009F0002078C00602D42046FFF7F0FC002608E06D
:100A0000D4E901211AF806009047206A401C761CA0
:100A100020624E45F4DB2078C0060AD52046FFF759
:100A2000DDFC06E0D4E9012130209047206A401C1B
:100A30002062381EA7F10107F4DC07E0D4E90121A8
:100A400018F805009047206A401C2062281EA5F176
:100A50000105F3DC2046FFF7D7FC2078000602D51D
:100A60000220BDE8F0870120FBE7000001694A1C75
:100A700002610878704700B58FB0CDE901310021DF
:100A8000059105497944CDE9031011466846FFF701
:100A90005DFD0FB000BD0000E5FFFFFF0A6802F832
:100AA000010B0A60704710B5436913B1AFF30080C2
:100AB00001E0FFF7BAFC012010BD127800F124011B
:100AC0000A7000224A700122EDE711684FF0FF32F0
:100AD000E9E70000074B70B50D467B44FFF7CBFFFD
:100AE0000446284600F008F810B14FF0FF3070BD02
:100AF000204670BDEF350000007B00F0800070479D
:100B0000754600F02BF8AE4605006946534620F0C6
:100B10000700854618B020B5FFF794FBBDE82040DC
:100B20004FF000064FF000074FF000084FF0000BA9
:100B300021F00701AC46ACE8C009ACE8C009ACE85C
:100B4000C009ACE8C0098D46704710B50446AFF344
:100B500000802046BDE81040FFF762BB00487047A8
:100B600060C1002010B5142001F06AFA0120084984
:100B70000860012107480DF05DFB012807D100BF87
:100B80000548006880F480700349086000BF10BD0C
:100B900014040140000801400C0C014010B5142061
:100BA00001F04EFA082008490860082107480DF0B6
:100BB00041FB38B900BF0648006880F020000449B6
:100BC000086000BF10BD000014040140001801407F
:100BD0000C0C014010B5142001F032FA10200D4920
:100BE000086010210C480DF025FB88B900BF0B48A8
:100BF000006880F020000949086000BF00BF064877
:100C00000C30006880F0200003490C31086000BF00
:100C100010BD000014040140001801400C0C0140FC
:100C200010B51248006800F48070D0B11048007808
:100C300090B9002240210F480DF004FB0122402111
:100C40000C480DF0FFFA012208210B480DF0FAFACA
:100C500001200749087004E00022082106480DF031
:100C6000F1FA4FF480700149086010BD140401408E
:100C70005700002000140140000C014010B50C4842
:100C8000006800F0010058B10A4908698047002057
:100C90000749143108604FF47A7005491C31086027
:100CA0000348006820F001000149086010BD000001
:100CB000100400400001002070B56048006886B252
:100CC000042506F00100F8B15D48007800F08000CE
:100CD000D0B15B48007820F01000594908700846F0
:100CE000007800F00F0020B90846007840F040007E
:100CF00008705348007800F00F000E2805DA5048BD
:100D00000078401C4E4908700AE04D48007820F0F9
:100D100080004B4908700846007800F0F000087029
:100D20000120A840304000281AD04FF400714548F7
:100D30000DF080FAA8B1414810300068691E8900A2
:100D4000491C01228A4010433C49103108600020B0
:100D5000091D08603A48007840F0100038490870D2
:100D600067E036483030006884B23448103000689C
:100D7000691E8900491C01228A4090432F49103185
:100D800008602F48007800F0100000284BD02C4855
:100D9000007800F08000A0B3B4F5967F0DDDB4F5C7
:100DA000487F0ADA28480068400827490860084652
:100DB000006820F00040086035E0B4F5AF6F0DDD4D
:100DC000B4F5E16F0ADA2048006840081E4908605F
:100DD0000846006840F00040086024E0B4F5FA6F6F
:100DE00021DD40F6B83084421DDA18480078401CF6
:100DF000164908701248007800F0F0001049087099
:100E000011E0FFE741F2680084420CDD41F25C2012
:100E1000844208DA0A48007840F0800008490870E7
:100E200000200A4908700648007820F010000449A4
:100E3000087000200149086070BD000010080040E3
:100E400058000020000C01405C00002060000020E1
:100E500010B50A48006900F0010038B1084801786F
:100E600008A0FFF79BFA00200549087003480069B5
:100E700020F001000149086110BD00000010004091
:100E8000560000206672616D653A25646670730DC8
:100E90000A0000001D49096801F0200111B31B4937
:100EA000091D0968C8B21A49098801F40041C9B985
:100EB0001749098801F4804161B10A2803D0002153
:100EC000134A118020E01249098841F40041104A78
:100ED000118019E00D2806D10D49098841F480419F
:100EE0000B4A118010E00A490988C1F30D01094A33
:100EF000505407490988491C054A11801146098840
:100F0000C72901DD00211180704700000038014031
:100F100040000020F401002030380A2801D20120CE
:100F200070470020704700BF704702460020CB1C6E
:100F300023F00301D2F888308B4207D38432536800
:100F40005B1A53601068431842F8843970470000F8
:100F50001CB500BF0B48806940F008000949886152
:100F600000BF0120009000230246010201900648C4
:100F70000DF09AF900224FF4807103480DF062F9E8
:100F80001CBD000000100240000C01402DE9F05F84
:100F900004460E462768D4F804804FF0000B207BEF
:100FA000C11700EBD1614911A0EB41150120A84008
:100FB000401E216E01EA000A2FE094F8640010B18F
:100FC0004FF0FF0925E077B9D4F808804FF480622C
:100FD00041462046D4F88C30984707461FB96FF039
:100FE0000100BDE8F09F18F8019B7F1EBBF1000FC8
:100FF00009D04FF0000BB9F1000F01D084F86490D4
:101000004FF0FF0905E0B9F1FF0F02D14FF0010BDE
:1010100003E049EA0A2A083500BFB542CDD3C4F837
:1010200060A0A81B20732760C4F80480A81B00F0F0
:101030001F012AFA01F0D4E72DE9F04F87B00C46E2
:101040004FF4B55BCDF818B041F2511BCDF814B098
:1010500042F6CF1BCDF810B041F6905BCDF80CB046
:101060004FF0000BCDF800B080E0D0F800C0D0F811
:101070004080D0F88090D0F8C0100CEB090AACEB9F
:10108000090BCDF808B0A8EB010B4FF4B55E0BFBD4
:101090000EFB4FEA2B3741447F1A0AEB010CAAEBF7
:1010A0000101DDF808B007EB0B08DDF808B0ABEB89
:1010B0000709D0F8E050036AD0F8A060026EA3EBF5
:1010C000050A5F19A6EB020BCDF808B03244A7EB76
:1010D000020B0BFB0EFB4FEA2B333A44DDF808B052
:1010E000D34441F6905E0BFB0EFB4FEA2B3BCDF851
:1010F00004B041F2511B0AFB0BFEDDF804B0ABEB70
:101100002E3542F6CF1EDDF808B00BFB0EFEDDF8E3
:1011100004B0ABEB2E3BABEB02069B1BED1A0CEBCA
:10112000020BC0F800B0ACEB020BC0F8E0B008EB6B
:10113000060BC0F820B0A8EB060BC0F8C0B009EB56
:10114000030BC0F840B0A9EB030BC0F8A0B001EB53
:10115000050BC0F860B0A1EB050BC0F880B0001D16
:10116000DDF800B00BF1010BCDF800B0DDF800B0F8
:10117000BBF1080FFFF679AF20384FF0000BCDF828
:1011800000B0A0E0D0F800B00BF5004CD0F808801B
:10119000D0F8109081690CEB090AACEB090BCDF883
:1011A00008B0A8EB010B4FF4B55E0BFB0EFB4FEA4A
:1011B0002B3741447F1A0AEB010CAAEB0101DDF841
:1011C00008B007EB0B08DDF808B0ABEB0709C56901
:1011D00043684669C268A3EB050A5F19A6EB020BD8
:1011E000CDF808B03244A7EB020B0BFB0EFB4FEA25
:1011F0002B333A44DDF808B0D34441F6905E0BFB44
:101200000EFB4FEA2B3BCDF804B041F2511B0AFB19
:101210000BFEDDF804B0ABEB2E3542F6CF1EDDF849
:1012200008B00BFB0EFEDDF804B0ABEB2E3BABEBD6
:1012300002069B1BED1A0CEB020B4FEA2B2B0FFA4D
:101240008BFBA4F800B0ACEB020B4FEA2B2B0FFA90
:101250008BFBA4F80EB008EB060B4FEA2B2B0FFA12
:101260008BFBA4F802B0A8EB060B4FEA2B2B0FFA6E
:101270008BFBA4F80CB009EB030B4FEA2B2B0FFAF6
:101280008BFBA4F804B0A9EB030B4FEA2B2B0FFA4E
:101290008BFBA4F80AB001EB050B4FEA2B2B0FFADE
:1012A0008BFBA4F806B0A1EB050B4FEA2B2B0FFA32
:1012B0008BFBA4F808B010342030DDF800B00BF13F
:1012C000010BCDF800B0DDF800B0BBF1080FFFF660
:1012D00059AF07B0BDE8F08F2DE9FF4F97B08A46B0
:1012E00093461F46DDF8908000201590039017B1BB
:1012F000B8F1000F03D129201BB0BDE8F08F0AEB35
:101300000700401E6E490988884201DD2920F3E765
:101310000BEB0800401E6A494988884201DD2920FC
:10132000EAE74FF400600AF04EFF04460CB91120C2
:10133000E2E74FF416700AF046FF1690169820B9AF
:1013400020460AF039FF1120D6E74FF04209422229
:10135000002104A809F0B2FF2820CDF81E00CDF826
:101360002270CDF826800121ADF82A101021ADF8A9
:101370002C100321CDF82E10DDF82610DDF82220E8
:101380005143BDF82C2001FB02F0C11700EB517155
:10139000CA10CDF8322044F64250ADF81000DDF806
:1013A00032004844CDF81200CDF81A904FF478403E
:1013B000CDF846004FF4FC61CDF84A101F21CDF85E
:1013C0004E102598012805D10322DDE9160101F010
:1013D000FBFE0390259810B10398042805D106223E
:1013E000DDE9160101F0F0FE0390DDF8221048005F
:1013F000C11700EB91718910A0EB810161B1DDF89B
:1014000022104800C11700EB91718910491C4FF65A
:10141000FF7202EA810605E0DDF822004FF6FF7157
:1014200001EA40060398002842D115AB4A4604A9B8
:10143000169802F0CEFA03900BEB0800401E80B223
:1014400001902EE00025CDF808A015E0DDF822007F
:10145000A84207DD1B480268DDE90110904724F827
:10146000150003E04FF6FF7024F81500681C85B2E4
:101470000298401C80B2029006EBD671B5EB610F6A
:10148000E4D1DDF82600401ECDF8260015AB32462B
:101490002146169802F09DFA03900198401E80B2F2
:1014A0000190DDF826000028CCD1169801F052FBFF
:1014B00020460AF081FE16980AF07EFE03981BE78C
:1014C000BC0200204CC1002070B505460C4600BF90
:1014D0000D48C06940F010000B49C86100BF0B48BF
:1014E000C5628462C06840F001000849C8600846CF
:1014F000006840F001000860022336220321012029
:101500000CF0DCFF70BD0000001002400010004035
:101510002DE9F041074600254FF41671002009F02F
:10152000E9FE06460EB9BDE8F0810FE02A460DA19E
:101530003846FEF73FFF01223946304601F044FEAF
:101540000446042C00D105E0681C85B24FF6FF70FC
:101550008542EBDB00BF3146002009F0B9FE00BF39
:10156000E1E70000303A50484F544F2F504943258F
:101570003035642E626D70002DE9F04704460D464B
:1015800090469946AD1E606B00EB153AC5F3C80650
:1015900005F0070101208840C7B200BF51460AF19B
:1015A000010A204609F0AEFD10B10120BDE8F08728
:1015B00000BF00BF04F13C00805D384008B101204D
:1015C00000E00020484501D10220EFE704F13C0093
:1015D000805D784004F13C0188550120E070A8F15D
:1015E0000100B0F1000800D1E0E77806000E071E08
:1015F000E0D10127701C0646B0F5007FD9D3002644
:10160000CCE700002DE9F041044688460020E07058
:10161000401EA0634146204609F074FD10B104202D
:10162000BDE8F08104F23A2007F0C2FF07464AF60F
:101630005520874208D10B222DA104F13C00FFF771
:1016400053F808B90120EBE794F83C50EB2D03D098
:10165000E92D01D0E82D43D14AF65520874208D123
:10166000082226A104F18E00FFF73EF808B90020F9
:10167000D6E704F1470007F09BFF06464920055DC9
:10168000701E304060BBB6F5007F29DBB6F5007FE9
:1016900026DC2DB3681E284010BB04F14A0007F079
:1016A00087FFE8B14C20005D401E012818D804F1E6
:1016B0004D0007F07DFF98B104F14F0007F078FF6F
:1016C000802806DA04F15C0007F035FFB0F5803FB2
:1016D00006D304F1520007F06BFF08B100209FE72A
:1016E0004AF65520874201D1022099E7032097E767
:1016F000EB76904558464154202020004641543313
:1017000032202020000000002DE9F84F82461546C7
:101710001E46DAF800000090DAF8500000F10409E3
:101720004FF40072002328463146FEF79CFD074621
:101730000098B0F80AC0624600233846FEF793FDD1
:10174000834600BF59F8044B14B90020BDE8F88F58
:10175000A34500D204E0ABEB040B09F10409F1E767
:1017600000BFD9F800005844F0E70246891ED0694E
:10177000801E884201D8002070475389106B03FBFC
:101780000100F9E72DE9F04780460C4604F11A0004
:1017900007F00EFF10B10020BDE8F087207800F0C0
:1017A0003F00401E00EB800101EBC0054FF0010936
:1017B000002621E01849895D081907F0F9FE07465F
:1017C000B9F1000F11D0FF2D0BD8384602F0D8FA2E
:1017D000824629466D1C38F8110002F0D1FA824584
:1017E00001D00020D8E7B94605E04FF6FF708742E8
:1017F00001D00020D0E7761C0D2EDBD3207800F03E
:10180000400038B1B9F1000F04D038F8150008B124
:101810000020C1E70120BFE79C3401082DE9F04713
:1018200006468A463468BAF1000F0AD1D4F814800B
:10183000B8F1000F02D0E069404516D84FF001081A
:1018400013E05146304602F0B9FC0746022F02D29F
:101850000120BDE8F087781C08B93846F9E7E0694F
:10186000B84201D93846F4E7D046A06908B900204B
:10187000EFE7207804284ED101224146204602F0AD
:1018800014FB05460DB1681C08B92846E1E70123A1
:101890001A4629462046FFF76FFE8146B9F1020F2E
:1018A00001D10120D5E7B9F1010F02D14FF0FF308E
:1018B000CFE7BAF1000F02D10220F0710CE0F0790D
:1018C000022809D108F10100854205D0B068A8EBD3
:1018D0000000B0610320F071F079022869D00AF1AC
:1018E0000100854207D1F06910B1F069401C00E0A9
:1018F0000220F0615DE0F06908B90120F0612A463C
:101900005146304602F0AFFA8146B9F1000F50D18E
:101910000120F0614DE00025D04519D108F1010505
:10192000E069A84200D802252946304602F046FC6C
:101930000746012F01D0781C08B9384689E73FB126
:101940006769022F03D3E069B84200D9B846002581
:10195000E5B9454600BF6D1CE069A84204D80225E0
:10196000454501D9002074E72946304602F026FC9F
:10197000074607B909E0012F01D0781C08B938469D
:1019800067E74545E7D1002063E700BF4FF0FF322E
:10199000294620460AF01EFC8146B9F1000F08D105
:1019A000BAF1000F05D02A46514620460AF012FC33
:1019B0008146B9F1000F0DD16561D4E90610801E92
:1019C000814202D8A069401EA061207940F0010048
:1019D000207107E0B9F1010F02D14FF0FF3000E0B4
:1019E00001200546284634E72DE9F74F8AB007461F
:1019F00088461AE10C98112803D206200DB0BDE8E4
:101A0000F08F0C9811380C9018F8010B079007987C
:101A100000F0EE0008B10620F0E7079806110798DD
:101A200000F00F0910213846FFF77FFA8246BAF11D
:101A3000000F01D10320E1E707F1200000EBC9000E
:101A400040F826A000200446089007E018F8011B83
:101A50000AF80410089808440890641C102CF5D368
:101A6000089841003846FFF760FA0590059808B9D4
:101A70000320C3E707F1300101EBC901059841F8E4
:101A80002600002006900446099018E01AF8045039
:101A90000AE00998421C06990992059A22F810104A
:101AA0000698401C80B20690281EA5F10105F0D1D1
:101AB0004FF6FF71069801EA40000690641C102C56
:101AC000E4D308990C98884201D2062096E7089939
:101AD0000C98401A0C9038460899FFF726FA83466E
:101AE000BBF1000F01D1032088E707F1400000EBB4
:101AF000C90040F826B000240CE018F8010B07904C
:101B000026B907980B2801DD062077E707980BF820
:101B10000400641C08988442EFD3002001900090D8
:101B2000AEB14FF400613846FFF7FFF9019001981C
:101B300008B9032062E707F16C01019841F8290018
:101B4000FF224FF400610198FEF7A1FE14E04FF46C
:101B500080613846FFF7E9F90090009808B9032042
:101B60004CE707F17401009841F82900FF224FF477
:101B700080610098FEF78BFE0020054604464CE08D
:101B80001AF80500099044E0059830F81400C5F1F2
:101B900009018840C0F309000290E6B12046641CA8
:101BA0001BF80010681C41EA00200390C5F10901F0
:101BB0000120884004900AE00498401E0490039895
:101BC00082B20298411C0291019921F810200498D8
:101BD0000028F1D11AE02046641C1BF80010681C94
:101BE00041EA00100390C5F10901012088400490EA
:101BF00009E00498401E04900398C2B20298411C68
:101C0000029100990A5404980028F2D10998401EC4
:101C1000099009980028B7D16D1C0A2DB0D307F19F
:101C2000650000EB4900845500BF0C9800287FF444
:101C3000E1AE00BFE2E600002DE9F34F85B081463A
:101C4000069800680290D9F80000D0F80CA0002592
:101C500000BF02A80CF0C2FC83460BF1010018B9CA
:101C6000062007B0BDE8F08FBBF5803F05D34FEAF3
:101C70001B4228466D1C2AF810201FFA8BF4202CDA
:101C800003DB2F2C01D05C2C00D111E0802C06DA74
:101C900021467BA0FEF71EFD08B10620E1E7FF2DDF
:101CA00001D30620DDE728466D1C2AF81040D0E756
:101CB00000BF202C01DA042611E002E00298401C4B
:101CC0000290029800782F28F8D0029800785C28BB
:101CD000F4D0002602980078202800D20426029929
:101CE0000698016008E0681E3AF81040202C02D0E7
:101CF0002E2C00D002E06D1E002DF4D100BF00207C
:101D00002AF815000DB90620ABE7002700E07F1C7C
:101D10003AF817002028FAD01FB93AF817002E28F1
:101D200001D146F0030600E06D1E25B1681E3AF8A9
:101D300010002E28F8D120220B2109F14000FEF7D7
:101D4000A6FD4FF00008CDF810800820039000BFDA
:101D500038467F1C3AF8104004B966E0202C03D0C6
:101D60002E2C04D1AF4202D046F00306F0E7DDE9A5
:101D70000310884201D2AF4216D103980B2802D13A
:101D800046F0030651E0AF4201D046F00306AF42F1
:101D900000D94AE02F46082004900B2003904FEA18
:101DA00088604FEA1068D3E7802C0ADB46F0020611
:101DB000204601F0E5FF4FF46A71019001F09EFFAB
:101DC0000446FF2C11DD0398401E0499884204D874
:101DD00046F0030603980490BAE722120498411CC7
:101DE000049109F140010A5418E024B1214627A0CA
:101DF000FEF770FC18B15F2446F003060EE0412C9C
:101E000003DB5A2C01DC48F00208612C06DB7A2C3B
:101E100004DC48F00108A4F1200084B20498411CBD
:101E2000049109F140010C5492E700BF99F8400079
:101E3000E52802D1052089F840000398082803D13D
:101E40004FEA88604FEA106808F00C000C2803D0B5
:101E500008F00300032801D146F0020606F0020054
:101E600048B908F0010008B146F0100608F0040077
:101E700008B146F008064B2000F809600020F0E6A3
:101E80002A3A3C3E7C223F7F000000002B2C3B3D49
:101E90005B5D00002DE9F04782460C4616462BE0BC
:101EA000412E02D20620BDE8F087413E14F8019B86
:101EB00009F0F00008B10620F5E709F003074FF438
:101EC00080715046FFF731F805460DB90320EAE767
:101ED0000AF1500040F8275000270BE0084810F89E
:101EE000078014F8010B074931F81810484345F8EA
:101EF00028007F1C402FF1D3002ED1D10020D2E743
:101F00008E380108CE3801082DE9F04704460E4608
:101F100040212046FEF7C3FC85202070C02084F8B5
:101F2000200040250020804607464FF0010900BFF1
:101F3000C12228466D1C2254002228466D1C2254C2
:101F400000BFB9F1000F06D036F81700B0F1000954
:101F500001D0781CC7B2601949460BF0EBFEAD1CEE
:101F600005F01F000028ECD108F1010000F0FF0887
:101F700036F817000028DBD184F8237008F101003F
:101F8000607030460DF00DFE8246514604F124008B
:101F90000BF0D0FEBDE8F08701460B480078884280
:101FA0000FDC09484078884201DB01207047064871
:101FB0008078884205DC0448C078884201DB012033
:101FC000F4E70020F2E70000A934010801461048B8
:101FD0000079884219DC0E484079884201DB0120F3
:101FE00070470B488079884205DC0948C0798842EF
:101FF00001DB0120F4E70648007A884205DC04484A
:10200000407A884201DB0120EAE70020E8E700008F
:10201000A93401084FF0E021096941F004014FF0B3
:10202000E0221161054908601146096941F001018A
:1020300011616FF07041516170470000380000205D
:1020400010B504464FF47A7104FB01F000F002F879
:1020500010BD000070B5034600224FF0E026756900
:102060000D4E366803FB06F44FF0E026B16910E030
:102070004FF0E026B06988420BD0884202D20E1A97
:10208000324402E02E1A0E4432440146A24200D3EA
:1020900000E0EDE700BF70BD380000202DE9F04101
:1020A00004460E46D4F800800021204600F06FFB65
:1020B00005465DBB002700BF4046A16B09F022F832
:1020C000054605B121E098F80000042805D1E06B31
:1020D0000078012121EAD01009E0E06B0078E528C2
:1020E00002D0E06B007808B9012000E0002020B1A8
:1020F000781C0746B04201D107E0002701212046A5
:1021000000F03FF90546002DD6D000BF042D00D1C8
:1021100007252846BDE8F0812DE9F04704468946A9
:1021200020460CF00BF810B10120BDE8F0874946BD
:102130002046FFF71AFB0746A7634FF4007104F12E
:102140003C00FEF7CEFB60894FF40041B1EB402F1D
:1021500001D8084601E06089400206464FF00008B9
:1021600000E07608B6F5007F05D9304601F073FD32
:10217000B0F10008F5D0B6F5007F16D931464046DB
:10218000FEF78DFB760A002500E035446089A84201
:1021900007D97A1960783346414600F0FDFB0028E4
:1021A000F3D0404601F05EFD10E004F13C0801264A
:1021B000002500E035446089A84207D97A19607883
:1021C0003346414600F0E8FB0028F3D06089A8427E
:1021D00001D00120A9E70020A7E72DE9F04F85B045
:1021E000044625680021204600F0D1FA07461FB1B9
:1021F000384605B0BDE8F08F287804284CD1E8684F
:102200000DF0CFFC01903EE0296901F1240007F0B8
:10221000CFF90199884200D035E0286990F8230071
:1022200003904FF0400A002002901FE00AF01F00C8
:1022300008B90AF1020A296901EB0A0007F0B8F9A6
:10224000009001F09DFD8346EA68029932F8110082
:1022500001F096FD834500D00BE00398401EC0B20C
:1022600003900AF1020A0298401C02900398002889
:10227000DCD100BF039828B9E968029831F8100052
:1022800000B906E000BF0021204600F0EAF8071E72
:10229000BAD000BF3846ACE74FF0FF09CDF8109038
:1022A0004FF0FF30E06400BF2846A16B08F02AFF22
:1022B000074607B162E0E06B06780EB904275DE0DF
:1022C000E06BC07A00F03F0884F80680E52E05D068
:1022D00008F0080040B1B8F10F0F05D04FF0FF092A
:1022E0004FF0FF30E06442E0B8F10F0F22D14B20F5
:1022F000005D00F04000A0BB06F0400038B1E06B8C
:10230000407B049006F0BF06B146206BE0644E456A
:102310000CD1E06B417B0498814207D1E16BE86806
:10232000FFF730FA10B1A9F1010000E0FF2000F042
:10233000FF091CE0B9F1000F06D1E06B0BF0A7FE1E
:102340000499884200D119E04B20005D00F00100A3
:1023500040B90B2204F14001E06BFEF7C5F908B962
:102360000CE004E04FF0FF094FF0FF30E064002183
:10237000204600F006F80746002F95D000BF3846EB
:1023800037E72DE9F041044688462768206B00F1C5
:1023900020063878042801D1800601E04FF40010AF
:1023A000B04201D80020A063A06B10B90420BDE8A2
:1023B000F081C6F3080000284AD1A06B401CA0633E
:1023C000606B38B93889B0EB561F41D80020A06344
:1023D0000420ECE77889401E00EA5620002837D117
:1023E0002046616B01F0EAFE0546012D01D802206E
:1023F000DDE7681C08B90120D9E7F869A84221D8AF
:10240000B8F1000F03D10020A0630420CFE72046DD
:10241000616BFFF703FA05460DB90720C7E7012DE9
:1024200001D10220C3E7681C08B90120BFE7294693
:102430003846FFF771FE08B10120B8E7E07940F0B7
:102440000400E071656329463846FFF78EF9A06302
:102450002663C6F3080107F13C000844E06300204E
:10246000A5E72DE9F05F04468846042627684FF06B
:10247000FF0AD3466CE03846A16B08F043FE0646DF
:1024800006B168E0E06B05780DB9042663E03878A2
:10249000042814D1B8F1000F02D0832D51D15AE095
:1024A000852D4ED1206BE064204607F0DBF8064610
:1024B00026B93869007900F03F00A0714BE0E06B6D
:1024C000C07A00F03F0984F80690E52D0AD02E2D41
:1024D00008D029F02000082801D1012000E00020C8
:1024E000404502D04FF0FF0A2BE0B9F10F0F1CD18D
:1024F00005F0400038B1E06B90F80DB005F0BF0575
:10250000AA46206BE06455450BD1E06B407B5845F3
:1025100007D1E16BF86809F0ABFC10B1AAF101003A
:1025200000E0FF2000F0FF0A0BE0BAF1000F04D139
:10253000E06B0BF0ACFD584502D04FF0FF30E0648B
:1025400009E000212046FFF71CFF064606B102E025
:10255000A06B00288FD100BF0EB10020A0633046D1
:10256000BDE8F09F2DE9F04F99B0044626684B2056
:10257000005D00F0A00018B1062019B0BDE8F08F92
:102580004FF0000B01E00BF1010BF06830F81B007D
:102590000028F8D13078042866D10BF10E000F2105
:1025A000B0FBF1F000F1020949462046FFF776FD45
:1025B00005460DB12846E0E7A9F101002022216B74
:1025C00002FB1010E064E07900F00400002845D020
:1025D000E07920F00400E071204601F029FC054676
:1025E0000DB12846C9E74FF0FF322046616B01F07C
:1025F0003AFC05460DB12846BFE7A06870B32146F6
:10260000684607F00FF805460DB12846B5E7708912
:102610004002D4E90431181841F10001C4E9040171
:10262000D4E90473316901F138003A460BF054FBE8
:10263000D4E90473316901F128003A460BF04CFBF0
:10264000E07940F00100316981F8210068460BF023
:10265000E5FC05460DB128468FE700BFD6E903101B
:10266000FFF752FC002088E7D4E91112206C15AB6B
:1026700007C39DF85F0000F0010028B340214B2004
:1026800001554FF0010A0EE0534615A904F1400030
:10269000F26801F029FD2046FFF79FFD054605B1D0
:1026A00004E00AF1010ABAF1640FEDD300BFBAF1F8
:1026B000640F01D1072060E7042D01D028465CE7B4
:1026C0009DF85F104B2001559DF85F0000F002005F
:1026D00030B10BF10C000D21B0FBF1F0401C00E01B
:1026E0000120814649462046FFF7D8FC054675BBC8
:1026F000A9F10100B0F1000929D0206BA0EB49112C
:10270000204600F044F805460DBB04F140000BF0F4
:10271000BEFC149000BF3046A16B08F0F3FC0546E8
:1027200005B113E009F0FF02E16BF068149B09F0BA
:10273000F3FD0120F07000212046FFF722FE054640
:1027400025B9A9F10100B0F10009E4D100BFE5B954
:102750003046A16B08F0D6FC0546B5B92021E06BE8
:10276000FEF79DF8E06B216C0160616C4160B4F88C
:102770004810018194F84A1081724B20005D00F0EE
:102780001800E16B08730120F0702846F5E62DE98A
:10279000F04104460D4626683078042801D18006B1
:1027A00001E04FF40010A84202D905F01F0010B15B
:1027B0000220BDE8F0812563A7682FB9307803288F
:1027C00002DBF76A0020E07147B93089B0EB551F92
:1027D00001D80220EDE7F06AA0631CE070894FEA9F
:1027E000402811E03946204601F0E8FC0746781CF5
:1027F00008B90120DDE7022F02D3F069B84201D801
:102800000220D6E7A5EB08054545EBD23946304610
:10281000FEF7ABFFA0636763A06B08B90220C8E7AF
:10282000A06B00EB5520A063C5F3080106F13C0046
:102830000844E0630020BCE770B50446002514B1ED
:10284000012C07D103E00AF083F8054604E008F004
:1028500083FD01E0012500BF00BF0DB1012070BD67
:102860000020FCE72DE9F04706468946154646BBA1
:10287000B9F1000F09D0B9F1010F13D0B9F1020F6E
:1028800005D0B9F1030F19D106E0002418E04FF488
:1028900000702860002413E01D48B0F85000288024
:1028A00000240DE01A484FF400720023D0E91271A1
:1028B0003846FDF74FFD2860002401E0042400BFE6
:1028C00022E0012E1FD1B9F1000F09D0B9F1010F9B
:1028D00011D0B9F1020F05D0B9F1030F10D106E004
:1028E00000240FE04FF40070288000240AE0082044
:1028F0002880002406E04FF4C0402860002401E056
:10290000042400BF00E001242046BDE8F087000059
:10291000F00200202DE9F04180460E4614461D4687
:10292000002715B90420BDE8F081B8F1000F03D0ED
:10293000B8F1010F25D113E02A46214630460AF0AE
:10294000C1F8074609E0022F01D00AF001F82A4633
:10295000214630460AF0B6F80746002FF3D112E0C0
:102960000BE0002000EB44214FF40072304608F0E9
:102970003FFD641C06F500766D1E002DF1D1002789
:1029800001E0012700BF00BF0FB90020CBE7012005
:10299000C9E70146002070472DE9F04107460E4681
:1029A00014461D464FF0000815B90420BDE8F0811B
:1029B00017B1012F24D112E02A46214630460AF0F1
:1029C000C5F8804607E009F0C3FF2A462146304695
:1029D0000AF0BCF88046B8F1000FF4D113E00BE028
:1029E000002000EB44214FF40072304608F096FDC1
:1029F000641C06F500766D1E002DF1D1A84602E09C
:102A00004FF0010800BF00BFB8F1000F01D1002056
:102A1000CCE70120CAE70146412901DA08467047A0
:102A2000612903DBA1F12000C0B2F8E70846F6E710
:102A30002DE9FC4105460027002405E0601CC4B2D6
:102A4000287800B902E06D1CFA2CF7DB00BFFA2CE5
:102A500002D1FF20BDE8FC81002408E06D1E28782B
:102A60002E2802D16D1C2F4603E0601CC4B2052C39
:102A7000F4DB00BF0FB9FF20ECE739466846FDF7ED
:102A80005FFE002407E01DF80400FFF7C4FF0DF807
:102A90000400601CC4B2042CF5DB002421E00026F5
:102AA0001AE0C4EBC400114901EB800050F8260085
:102AB000007800B912E0C4EBC4010C4A02EB8101BA
:102AC00051F826006946FDF733FF18B946EA0410AD
:102AD000C0B2BFE7701CC6B2072EE2DB00BF601CAD
:102AE000C4B2072CDBDBFF20B4E70000F43401089C
:102AF00070B5002500240EE04FF40F71002008F09F
:102B0000F9FB0B4941F82400084650F8240000B9AD
:102B100003E0601CC4B2022CEEDB00BF07F07AFEBB
:102B20000546022C02D10DB9002070BD0120FCE742
:102B30008C00002010B50222D10105480BF02EFCBC
:102B400002231722002108460BF0B8FC10BD00003C
:102B50000008014038B50546284600F066FE0446E8
:102B60004CB9694628460CF0DFFF04461CB900202A
:102B70002860204638BD2046FCE72DE9F04F8FB095
:102B8000044615461E460DA920460CF0CDFF0E90BA
:102B90000E9810B994F831000E900E9848B90D981F
:102BA0000078042805D1421F2046216C01F05BF912
:102BB0000E900E9818B10E980FB0BDE8F08F206DF2
:102BC00000287ED04FF0FF3185EA010071400843B4
:102BD00055D1206D04900498006806900498001D5B
:102BE000049002200590D4F808B0BBF1000F38D053
:102BF00000BFCDF81CB0002008900598801C0590FF
:102C000000BFCDF824B00898401C089059462046D3
:102C100001F0D4FA8346BBF1010F03D8022084F8F7
:102C20003100C9E70BF1010018B9012084F8310027
:102C3000C2E70998401C8345E3D0DDE905018842DD
:102C40000BD80499089808600498001D0490049912
:102C5000079808600498001D04900D98C0695845B5
:102C6000C7D80598216D0860DDE90501884203D8C1
:102C7000002104980160A9E111200E90A6E1D4E999
:102C80000410491BB04101D2D4E90456C4E90E56E0
:102C9000002185EA010071400843ECD06F1E66F107
:102CA00000033A462046FEF72FFD2064216C0D9864
:102CB000FEF75BFD0390039820B9022084F83100F1
:102CC0007AE748E06F1E66F100014FF400720023BE
:102CD0003846FDF7C8FA0D994989491E08400399FD
:102CE000084403904FF400720023D4E90E71384673
:102CF000FDF7B9FA00214A404B401A43BBD0616C42
:102D000003988142B7D094F8300000F0800090B171
:102D1000626C0D994878012304F15401FFF73CFEE1
:102D200018B1012084F8310046E794F8300000F033
:102D30007F0084F830000D994878012304F1540194
:102D4000039AFFF7E7FD18B1012084F8310033E75B
:102D5000039860643AE10D980078042806D0291E93
:102D600076F1010002D34FF0FF350026D4E90410BC
:102D7000491BB04106D294F8300000F0020008B9B7
:102D8000D4E90456D4E90E01CDE90A0100200C90E3
:102D9000A063E063002185EA0100714008437ED012
:102DA0000D9840894FEA40290023DDE90A01584087
:102DB000594008432CD06F1E66F100014A46384640
:102DC000FDF751FA07468846DDE90A10491E60F111
:102DD00000004A460023CDE9001008460199FDF79E
:102DE00042FA381A78EB010812D3DDE90A104A1EBC
:102DF00060F10001A9F1010022EA0000C4E90E011E
:102E0000D4E90E21AD1A66EB0106D4F840A01BE010
:102E1000D4F808A0BAF1000F14D100212046FEF723
:102E2000FDFC8246BAF1010F03D1022084F8310083
:102E3000C2E60AF1010018B9012084F83100BBE6AE
:102E4000C4F808A0C4F840A0BAF1000F75D047E05C
:102E5000B5EB090566F10006D4E90E2012EB090274
:102E600040F10000C4E90E2094F8300000F00200A8
:102E7000E8B1D4E90E32D4E90410C91A904109D25C
:102E8000D4E90E01C4E9040194F8300040F0400098
:102E900084F8300051462046FEF7C0FC00E04CE0CC
:102EA0008246BAF1000F07D100252E461DE051469B
:102EB000204601F083F982460AF1010018B9012089
:102EC00084F8310078E6BAF1010F03D90D98C06992
:102ED000504503D8022084F831006DE6C4F840A0C4
:102EE0000020B9EB0501B041B2D300BFD4E90E1008
:102EF00049197041C4E90E104FF4007200232846AE
:102F00003146FDF7B0F900214A404B401A4314D036
:102F100051460D98FEF729FC0C900C9818B9022028
:102F200084F8310048E64FF4007200232846314609
:102F3000FDF799F90C9908440C90D4E90430D4E9D0
:102F40000E12591A904109D2D4E90E01C4E90401C4
:102F500094F8300040F0400084F830004FF40072E4
:102F60000023D4E90E713846FDF77DF900214A406F
:102F70004B401A432AD0616C0C98814226D094F8B9
:102F8000300000F0800090B1626C0D994878012308
:102F900004F15401FFF700FD18B1012084F831005D
:102FA0000AE694F8300000F07F0084F830000D99B4
:102FB0004878012304F154010C9AFFF7ABFC18B1D7
:102FC000012084F83100F7E50C9860640E98F3E571
:102FD0002DE9F141A3B0022201A923A807F058FE70
:102FE0000446002C7ED101980E904FF48C6000F0C6
:102FF00032FE06461EB9112024B0BDE8F0810198CA
:10300000C66006F50070019908610EA8239900F0CA
:10301000DAFF044604B9082400BF042C7ED10198CD
:103020000290002102A8FEF7F9FB0546002405B92D
:103030000724012D00D10224681C00B9012401F0ED
:1030400087F98046002C3BD129460198FFF764F8A8
:103050000446ACBB0198007804282DD020220B2117
:1030600001983C30FDF713FC2E20019981F83C00BB
:103070001021019880F847104146019852300AF01B
:103080001FFE2A4601993C3101980AF007FE2022D2
:1030900001993C3101985C30FDF7C7FB2E21019866
:1030A00080F85D10109F3A4601995C3101980AF052
:1030B000F5FD01200199C8700EA8FFF753FA0446E8
:1030C000002C4CD101980078042831D1019909696C
:1030D00001F10C0041460AF0F3FD0199096901F183
:1030E000340000E043E029460AF0EAFD019A5289E3
:1030F0005102019A126902F138000AF0E1FD019AC9
:1031000052895102019A126902F128000AF0D8FD91
:1031100003200199096981F8210000E024E01020D2
:103120000199096908710EA80AF078FF044610E0B9
:103130001D9901F1160041460AF0C2FD2A461D996B
:1031400001980AF0ABFD10201D99C8720120019969
:10315000C8704CB901980AF0ABFF044604E00022A5
:10316000294602A809F01AFA304600F07BFD2046F5
:1031700042E70000F7B582B016460398019001A817
:1031800001F025FA0546002D02DA0B2005B0F0BD4E
:103190000C4850F825400CB100202070029810B166
:1031A0000020029908700749029841F825000EB9DD
:1031B0000020EBE7002202A903A807F069FD0746FB
:1031C0003846E3E7800000202DE9F74F9AB0044627
:1031D00016461CB909201DB0BDE8F08F06F03F0669
:1031E000324605A91BA807F053FD0546002D7BD1EB
:1031F000059806904FF48C6000F02DFD8346BBF1DE
:10320000000F01D11120E6E70598C0F80CB00BF5CE
:1032100000700599086106A81B9900F0D4FE0546C8
:103220002DB99DF8630000F0800000B1062506F07E
:103230001C0000287ED045B1042D03D106A8FFF75D
:1032400091F9054646F008060AE09DF81E0000F0D8
:10325000110008B1072503E006F0040000B10825BD
:10326000002D40D106F0080000283CD005980078D9
:1032700004283AD1059820602146059802F0E4F927
:1032800005990969881C1E21FDF709FB0599096943
:1032900001F126001A21FDF702FB2020059909699A
:1032A000087101F055F801900599096901F10800CC
:1032B00001990AF005FD01200599096981F82100AD
:1032C00006A80AF0ABFE0546002D5CD1A0680028D8
:1032D00059D000222046A16809F060F90546A0688F
:1032E000401E059948614EE0F2E001F031F803908C
:1032F000159901F10E0003990AF0E2FC159901F10C
:10330000160003990AF0DCFC1599059806F000F9FF
:10331000049020201599C8720022159905980AF08A
:10332000BDFC159901F11C0000210AF0C9FC012027
:10333000059900E016E0C870049820B30598806BEA
:103340000290002206A8049909F028F90546D5B98B
:103350000299059807F0D6FE05460498401E059987
:10336000486110E07DB99DF81E0000F0100008B122
:10337000042508E006F0020028B19DF81E0000F0C8
:10338000010000B107254DB906F0080008B146F06C
:1033900040060598806BA0641598E064002D7DD1EF
:1033A0000598007804280FD1089820620A9820F028
:1033B000FF009DF81F10084360621998A062214623
:1033C000059802F041F90CE01599059806F0A0F86F
:1033D000A060159901F11C0006F0ADF80021C4E9C8
:1033E000040100202065059820600598C088A08011
:1033F00084F83060002084F8310060640021A1630B
:10340000E1634FF4007104F15400FDF76AFA06F02D
:103410002000002859D00023D4E904105940584016
:10342000014352D0D4E90401C4E90E010598408952
:103430004FEA4029D4F808A0D4E9047810E05146B6
:10344000204600F0BBFE8246BAF1010F00D80225EB
:103450000AF1010000B90125B7EB090768F100087E
:103460002DB90020B9EB070170EB0800E7D3C4F8D1
:1034700040A09DB94FF40072002338464146FCF746
:10348000F2FE00214A404B401A431ED05146059897
:10349000FEF76BF90290029818B900E015E00225DA
:1034A00013E04FF40072002338464146FCF7DBFE80
:1034B000029908446064626C05994878012304F11C
:1034C0005401FFF727FA00B10125584600F0CAFB66
:1034D0000DB10020206028467DE673B582B0044619
:1034E00014B9092004B070BD002201A903A807F097
:1034F000CFFB0546002D47D1019820604FF48C602A
:1035000000F0A9FB06460EB91120EBE70198C66052
:1035100006F50070019908612046039900F053FDFB
:1035200005465DBB4B20005D00F08000E8B9A07946
:1035300000F01000C0B10198007804280ED1A068F6
:103540002062206920F0FF00E17908436062E06CAE
:10355000A0622146019802F077F806E0E16B01983D
:1035600005F0D6FFA06000E005253DB90198C088B0
:10357000A08000212046FFF70AF90546304600F0FA
:1035800071FB042D00D105250DB1002020602846D7
:10359000A8E72DE9FF4F87B0044615460898039029
:1035A00000210A98016005A920460CF0BDFA06909A
:1035B000069818B994F83100069018B106980BB027
:1035C000BDE8F08F94F8300000F0010008B9072042
:1035D000F5E7D4E90E23D4E904108F1A60EB030851
:1035E000791B78F1000000D23D46E1E0D4E90E01FC
:1035F0004FF400720023CDE90001FCF734FE0021F6
:103600004A404B401A437DD1D4E90E014FF4007279
:103610000023CDE90001FCF726FE05994989491EE2
:1036200000EA010ABAF1000F2BD10023D4E90E0100
:1036300058405940084302D1A068049011E0206D21
:1036400050B1D4E90E0102460B46CDE900012046F7
:10365000FEF75AF8049004E02046216C00F0AEFD1D
:1036600004900498022803D2022084F83100A6E7CF
:103670000498401C18B9012084F831009FE7049891
:103680002064216C0598FEF770F88146B9F1000FAF
:1036900003D1022084F8310091E7D1444FEA552B41
:1036A000BBF1000F2FD00AEB0B0005994989884226
:1036B00003D905984089A0EB0A0B059948785B4629
:1036C0004A460399FFF726F918B1012084F8310022
:1036D00075E794F8300000F0800080B1606CA0EBDA
:1036E000090058450BD2616CA1EB0901039A02EB6A
:1036F00041204FF4007204F15401FDF751F84FEAF4
:103700004B2645E029E0606C484524D094F8300011
:1037100000F0800090B1626C05994878012304F1B3
:103720005401FFF739F918B1012084F8310046E758
:1037300094F8300000F07F0084F830000599487854
:1037400001234A4604F15401FFF7E4F818B10120BF
:1037500084F8310033E7C4F84490208FC0F30800A8
:10376000C0F50076AE4200D92E46D4E90E014FF4E2
:1037700000720023CDE90001FCF775FD04F154004F
:1037800010443246014602900398FDF709F800BF45
:10379000AD1B0A98006881190A98016003983044AB
:1037A0000390D4E90E10891940F10000C4E90E100D
:1037B000002D7FF41BAF002001E7F8B507460E4649
:1037C000694638460CF0B0F9044664BB2EB90021B6
:1037D0003846FEF7DCFF044625E04FF48C6000F02D
:1037E0003AFA05460DB91120F8BD0098C56005F5F7
:1037F00000700099086100213846FEF732FE044649
:10380000042C00D100245CB93146384600F0A2FDFA
:1038100000213846FEF7B5FD0446042C00D10024F3
:10382000284600F01FFA2046DEE72DE9F04796B063
:10383000044614A920460CF077F90546002D7ED1E8
:1038400094F8300000F04000002878D094F8300060
:1038500000F0800090B1626C14994878012304F163
:103860005401FFF799F818B1012016B0BDE8F087B0
:1038700094F8300000F07F0084F8300000F068FD1C
:10388000824614980078042875D1204600F0D0FABA
:10389000054635B94FF0FF322046216C00F0E3FABF
:1038A0000546002DCBD14FF48C6000F0D4F9814651
:1038B000B9F1000F01D11120D7E71498C0F80C908E
:1038C00009F50070149908612146684605F0AAFEC2
:1038D0000546002D4AD114980069007940F0200077
:1038E000149909690871E07940F001001499096997
:1038F00081F82100A168149A126902F134000AF0DB
:10390000DFF9D4E904731499096901F138003A46E2
:103910000AF0E2F9D4E904731499096901F1280065
:103920003A460AF0D9F91499096901F10C00514697
:103930000AF0C6F9002014990969487500E046E0CC
:103940001499096901F1100000210AF0B9F96846DB
:103950000AF064FB05464DB914980AF0A9FB054628
:1039600094F8300000F0BF0084F83000484600F0C2
:1039700079F92CE0FFE7A16C149807F0C3FB05462A
:103980002DBBE66CF07A40F02000F0723146A26860
:1039900020680AF083F906F11C0021690AF090F909
:1039A000514606F116000AF08BF9002106F11200CB
:1039B0000AF0C0F901201499C87014980AF078FB35
:1039C000054694F8300000F0BF0084F83000284627
:1039D0004BE72DE9FF4F87B0044615469B460898F4
:1039E00003900020CBF8000004A920460CF09CF8BE
:1039F0000590059818B994F83100059018B105980C
:103A00000BB0BDE8F08F94F8300000F0020008B968
:103A10000720F5E704980078042807D0A06B401928
:103A2000A16B884202D2A06BC0F1FF3507E1D4E957
:103A30000E014FF400720023CDE90001FCF713FCE6
:103A400000214A404B401A437CD1D4E90E014FF487
:103A500000720023CDE90001FCF705FC04994989B7
:103A6000491E00EA010ABAF1000F3AD10023D4E955
:103A70000E1059405840014309D1D4F80880B8F1DC
:103A8000000F16D12046FDF7C9FE804611E0206DDB
:103A900050B1D4E90E0102460B46CDE900012046A3
:103AA000FDF732FE804604E02046216CFDF7B6FEAD
:103AB0008046B8F1000F00D1C4E0B8F1010F03D186
:103AC000022084F831009BE708F1010018B90120B9
:103AD00084F8310094E7C4F84080A06808B9C4F8BD
:103AE000088094F8300000F0800090B1626C049976
:103AF0004878012304F15401FEF74EFF18B101206C
:103B000084F831007CE794F8300000F07F0084F8FE
:103B10003000216C0498FDF728FE07461FB90220EB
:103B200084F831006CE757444FEA5529B9F1000F8A
:103B30002FD00AEB090004994989884205D90498D5
:103B4000408900E03DE0A0EB0A09049948784B4623
:103B50003A460399FEF720FF18B1012084F831009E
:103B60004EE7606CC01B484510D2606CC01B039AC6
:103B700002EB40214FF4007204F15400FCF710FEF8
:103B800094F8300000F07F0084F830004FEA4926B6
:103B900037E0606CB84213D0D4E90431D4E90E2088
:103BA000D21A88410CD20499487801233A4604F18C
:103BB0005401FEF7AFFE18B1012084F831001FE771
:103BC0006764208FC0F30800C0F50076AE4200D9CC
:103BD0002E46D4E90E014FF400720023CDE9000116
:103BE000FCF741FB04F15400104432460290039963
:103BF000FCF7D6FD94F8300040F0800084F83000E7
:103C000000BFAD1BDBF800003044CBF80000039888
:103C100030440390D4E90E20921940F10000C4E929
:103C20000E20D4E90E31D4E90420D21A884102D200
:103C3000D4E90E0101E0D4E90401C4E90401002D36
:103C40007FF4F5AE00BF94F8300040F0400084F8F7
:103C500030000020D4E610B504462146002007F0CD
:103C600049FB10BD10B504462146002007F030FB8B
:103C700010BD00002DE9F84F04468B461E48D0F8D1
:103C800005004FEA500A802C01DAA04630E01A48BD
:103C9000D0F805004FEA50090120C0EB9909002730
:103CA00010261CE0A9EB070007EB50051248D0F8DE
:103CB000010000EB850000EB0A010422684607F0D2
:103CC00097FBBDF80000A04200D10AE0BDF800005B
:103CD000A04201DA2F4600E0A946701E86B2002EEF
:103CE000E0D100BF16B1BDF8020000E00020804620
:103CF0004046BDE8F88F000000C100202DE9F84FD4
:103D000004468B464FF0000A802C02D21FFA84F83A
:103D100030E01A48D0F805004FEA50090120C0EB06
:103D20009909002710261CE0A9EB070007EB5005B6
:103D30001248D0F8010000EB850000EB0A010422D4
:103D4000684607F055FBBDF80000A04200D10AE02C
:103D5000BDF80000A04201D22F4600E0A946701E27
:103D600086B2002EE0D100BF16B1BDF8020000E01F
:103D7000002080464046BDE8F88F000000C10020CA
:103D800070B5B0F5803F4DD281B2B1F5805F01DAF8
:103D9000254E00E0254E324600BF32F8023B0BB103
:103DA000994200DA3CE032F8024B2512E4B21E19C7
:103DB0008E4230DD092D2CD2DFE805F005090F1306
:103DC000171B1F232700CE1A32F8161021E0CE1A37
:103DD00006F001068E1BB1B21BE0A1F11006B1B2D4
:103DE00017E0A1F12006B1B213E0A1F13006B1B2A3
:103DF0000FE0A1F11A06B1B20BE001F10806B1B271
:103E000007E0A1F15006B1B203E0A1F5E356B1B26B
:103E100000BF00BF04E0002DBFD102EB4402BCE7AD
:103E200000BF084670BD0000B8350108AA37010878
:103E30002DE9F0410446E079032812D1A568A7696D
:103E40000BE06A1C2946206808F0C4F9064616B142
:103E50003046BDE8F0816D1C7F1E002FF1D100209F
:103E6000E0710020F5E72DE9F04104460D461746C4
:103E700016E0E369012B03D9E369EB1A9B1C00E010
:103E80003B461A46E369EB1A591C206808F0A2F970
:103E9000064616B13046BDE8F081E069401EE0619B
:103EA000E0690028E5D100BFF5E72DE9F74F0546A9
:103EB0000E46B61EE869801EB04200D80026344681
:103EC000A2464FF0000B00BF686B00EB1431284690
:103ED00007F018F918B14FF0FF30BDE8FE8FC4F3BA
:103EE000C80904F0070101208840C7B200BF00BF25
:103EF00005F13C0010F8090000EA07087806070EF3
:103F0000601C0446E969891E884203D30024002707
:103F10004FF40079B8F1000F08D10BF1010083468E
:103F20000299884205D10AF10200D6E7A2464FF075
:103F3000000BB44201D10020CFE7002FD8D10127D8
:103F400009F101008146B0F5007FD0D3BCE72DE92F
:103F5000FF4107460D4600213846FDF753FB064654
:103F6000022E06D0032E00D21DB9304604B0BDE8A3
:103F7000F08100BF00240AE007F5FD7101EB041198
:103F800001F1080005F0D7FA4DF82400641C042C58
:103F9000F2D30DB1681E00E00020044600BF5DF8BA
:103FA000240028B15DF824103846FDF72BFB00E013
:103FB000032006462DB9022E03D3601C04460428B4
:103FC000EDD33046D2E72DE9F3410446276802E0FD
:103FD0000198401C0190019800782F28F8D0019892
:103FE00000785C28F4D00020A060E061019800789F
:103FF000202808D280214B20015500212046FEF7C1
:10400000C6FB05463EE000BF01A92046FDF714FEB1
:10401000054605B135E02046FEF7DFF805464B20A2
:10402000065D3DB1042D04D100BF06F0040000B9C7
:10403000052526E006F0040000B122E0A07900F09A
:10404000100008B905251CE0387804280ED1A068B6
:104050002062206920F0FF00E17908436062E06C93
:10406000A0622146384601F0EFFA09E0208EC0F345
:10407000080207F13C001118384605F049FAA06023
:10408000C2E700BF2846BDE8FC81000010B500244F
:104090000FE0601CC4B221224FF440010A4807F02F
:1040A000A7F909480078AA2800D104E01420FDF7F8
:1040B000C7FF0A2CEDDB00BF03480078AA2801D017
:1040C000012010BD0020FCE700C1002000BF054A10
:1040D000126802F04002002AF9D0C2B2014B1B1D47
:1040E0001A607047003801402DE9FF4F83B0074642
:1040F00091461E46049801683960416879600189DB
:104100003981807AB872052E19D9B04612E039F893
:1041100002BB00240CE0584668F35F0080464FEA7B
:104120006B0B08F4803010B1234888EA0008641C47
:10413000102CF0D3B9F800000028E8D14646072437
:1041400000BF06F00F0000F1300A3609BAF1390F4E
:1041500003DD0AF1070000F0FF0A2046641E01A9F2
:1041600001F800A00CB1002EEBD17E2001A908556A
:10417000002509E0785DFDF70FFF20B1601EA84221
:1041800000D106E06D1C6D1CA54202D2785D20288E
:10419000F0D100BF00BF082C04D22046641C01A946
:1041A000085C00E0202029466D1C7854082DF2D3CD
:1041B00007B0BDE8F08F0000211001002DE9FC5F81
:1041C00006460C463568022C02D3E869A04202D8A4
:1041D0004FF00109B9E04FF0FF392878012806D0E7
:1041E000022830D0032841D004287CD152E0274651
:1041F00007EB5707A86A00EB5721284606F082FF15
:1042000000B1A1E038467F1CC0F3080105F13C0075
:1042100010F80180A86A00EB5721284606F072FFCB
:1042200000B191E0C7F3080105F13C00405C48EAA9
:10423000002804F0010010B14FEA181001E0C8F3A3
:104240000B00814680E0A86A00EB1421284606F0A6
:1042500059FF00B178E040F2FF1101EA440205F194
:104260003C01501805F0A4F981466DE0A86A00EB06
:10427000D411284606F046FF00B165E040F2FF1178
:1042800001EA840205F13C01501805F054F920F0D0
:10429000704959E00023D6E90410594058400143C1
:1042A00001D0B06808B9F07990BBB068A4EB000AFF
:1042B000D6E904305A1E60F10000CDE900204FF429
:1042C00000720023DDE90001FBF7CDFF6989B0FB37
:1042D000F1FBF07902280AD1DA4508D8DA4503D192
:1042E0006FF0004001E02CE0601C81462CE0F0798A
:1042F000032805D1B069504502D904F1010923E032
:10430000F079022819D0F06918B16FF0004913E074
:1043100014E0A86A00EBD411284606F0F3FE00B1C1
:1043200012E040F2FF1101EA840205F13C0150184D
:1043300005F001F920F0004906E000BF4FF0010947
:1043400002E04FF0010900BF00BF4846BDE8FC9FF6
:10435000002070472DE9FC5F80460C46D8F800909D
:104360000020A076D8F8380008B9BDE8FC9F99F87D
:104370000000042874D100200090402700258246C8
:1043800030E0B7F5187F01D3002532E007F01F00B9
:1043900000B9BF1CD9F81010C81905F009F9064674
:1043A000BF1C0098401C0090BAF1000F07D1B6F571
:1043B000584F04DBB6F5604F01DAB24612E0C5F1A2
:1043C000FF0204F11A03591946EA0A4007F0E4FF14
:1043D0008346BBF1000F01D100250AE05D444FF098
:1043E000000A00BFD9F8100090F82310009881420D
:1043F000C7D800BFBAF1000F00D000252DB93F2269
:1044000028466D1C04F11A010A54002104F11A0017
:10441000415500206073D9F81000007900F0370092
:104420002073207B00F0100010B10020014605E051
:10443000D9F8101001F1380005F089F8C4E900013D
:10444000D9F8101001F10C0005F0B2F86081D9F82C
:10445000101001F10E0005F0ABF8208185E7FFE7B1
:10446000D8F84C00401CB0B300252F46AA4623E0E4
:1044700038467F1CD9F80C2032F81060BAF1000FD2
:1044800007D1B6F5584F04DBB6F5604F01DAB246F6
:1044900012E0C5F1FF0204F11A03591946EA0A4075
:1044A00007F07AFF8346BBF1000F01D1002509E038
:1044B0005D444FF0000A00BFD9F80C0030F8170037
:1044C0000028D5D100BFBAF1000F00D0002500218F
:1044D00004F11A0041550020054607461AE0384607
:1044E0007F1CD8F83C20165C202E00D112E0052E4F
:1044F00000D1E526092F07D10C2D05D22E22284602
:104500006D1C04F10D010A5428466D1C04F10D01C7
:104510000E5400BF0B2FE2D3002104F10D004155D2
:10452000A07EA8BB35B93F2228466D1C04F11A01B4
:104530000A5423E00020054607460820019018E0B1
:1045400004F10D00C65D2E2E01D110200190412EE8
:104550000ADB5A2E08DCD8F83C00007B01990840A1
:1045600010B106F1200086B204F11A0046557F1CF6
:104570006D1C04F10D00C05D0028E1D1002104F1A3
:104580001A004155D8F83C00007B08B90020607340
:10459000D8F83C00C07A00F03F002073D8F83C10F7
:1045A00001F11C0004F0C7FF0021C4E90001D8F8A4
:1045B0003C1001F1160004F0FBFF6081D8F83C10BC
:1045C00001F1180004F0F4FF208100BFCDE670B5C2
:1045D00004464FF0FF3026683146324601B970BDBF
:1045E00000BF12F8013B202B01D33A2BF9D13A2B13
:1045F00011D102250E78302E08DB0E78392E05DC1D
:104600008E1C964202D10E78A6F13005022D01DAF9
:1046100028462260E3E7002000BFE0E73EB50446FD
:104620006B46062201A92046FEF7B3FF05460DB1F1
:1046300001203EBD9DF80400472817D19DF80500D4
:10464000492813D19DF8060046280FD19DF8070090
:1046500038280BD19DF80800372803D09DF80800B2
:10466000392803D19DF80900612801D00220E0E734
:104670000020DEE70FB42DE9F84F074688461446C0
:10468000617904F1100000EB4100B0F800B0BDF812
:10469000380010B1BDF83A0018B9BDE8F80F5DF860
:1046A00014FBB4F80900BDF8361088422ADDBDF8C5
:1046B000340038441FFA80F9BDF8360040441FFA30
:1046C00080FABDF834003844BDF838100844401E64
:1046D00085B2B4F809004044401E86B2A94511DAFB
:1046E000B2450FDAB5F5A07F0CDAB6F5A07F09DA8E
:1046F0005C48CDF800B033462A465146D0F808C091
:104700004846E047B4F80700BDF8341088422ADD77
:10471000BDF8340038441FFA80F9BDF83600404433
:104720001FFA80FAB4F807003844401E85B2BDF87D
:1047300036004044BDF83A100844401E86B2A945F0
:1047400011DAB2450FDAB5F5A07F0CDAB6F5A07F25
:1047500009DA4448CDF800B033462A465146D0F82D
:1047600008C04846E047B4F80910B4F80D00084402
:10477000BDF83610BDF83A201144884232DABDF84F
:10478000340038441FFA80F9B4F8090000EB08013E
:10479000B4F80D000844401E1FFA80FABDF834003A
:1047A0003844BDF838100844401E85B2BDF83600C4
:1047B0004044BDF83A100844401E86B2A94511DABB
:1047C000B2450FDAB5F5A07F0CDAB6F5A07F09DAAD
:1047D0002448CDF800B033462A465146D0F808C0E8
:1047E0004846E047B4F80710B4F80B000844BDF899
:1047F0003410BDF838201144884231DAB4F807008B
:10480000C119B4F80B000844401E1FFA80F9BDF826
:10481000360040441FFA80FABDF834003844BDF831
:1048200038100844401E85B2BDF836004044BDF83B
:104830003A100844401E86B2A94511DAB2450FDA93
:10484000B5F5A07F0CDAB6F5A07F09DA0548CDF8FA
:1048500000B033462A465146D0F808C04846E047E3
:1048600000BF1AE74CC100202DE9F84F81460E46E3
:1048700017469846DDF828A00025002000904FF448
:10488000167007F0A0FC8346BBF1000F00D1112584
:104890004FF4836007F097FC044604B9112543F6F2
:1048A000F44007F090FCC4F81404D4F8140400B9E0
:1048B0001125002D5FD1012249465846FEF784FCA0
:1048C0000546002D54D15846FFF7A8FE00B1272514
:1048D0002146584600F04AFA00B127252088404575
:1048E00002DC6088504501DD28250FE02188A8EB17
:1048F000010000EBD07106EB61018EB26188AAEB7A
:10490000010000EBD07107EB61018FB2012020495B
:10491000087027E03B4632462146584600F046F9EB
:104920000546E07B00F0800010B1204600F09CFDC1
:10493000B4F8120418B1B4F81204009001E00A208F
:10494000009002E00A20FDF77BFB0098411E89B22F
:10495000009118B10E4800780028F3D1022D01D142
:10496000002504E00A48007808B1002DD2D000BF2D
:104970005846FEF7EFF8584607F01EFCD4F814042A
:1049800007F01AFC204607F017FC2846BDE8F88F10
:10499000940000202DE9FF4F8BB00C469A46DDF8BD
:1049A00060B0B4F80B000490B4F80D0003900D99BA
:1049B00004980844401E0590617904F1100000EB52
:1049C00041000088019004F1100000900AAB012220
:1049D00009A90B98FEF7DDFD9DF82410204600F094
:1049E00087FCE07B00F040000690002008905646CF
:1049F0000790CEE000277D1EDDF8348082E0D4F8F9
:104A0000140400F54050D0F8BC0CD4F8141443F250
:104A10000212114488420FD9D4F8140400F5405012
:104A2000D0F8BC0C401ED4F8141401F54051C1F864
:104A3000BC0C90F8009004E021460B9800F0B9F906
:104A4000814609F1020018B900200FB0BDE8F08FCF
:104A5000B9F1000F03DBB4F81004484501DC012074
:104A6000F3E7A94504D10598804501DC7F1C46E0A9
:104A70003FB35D4514D0DDF800E03EF8153007F196
:104A8000010E1FFA8EF2B1B2A8EB070EAEF1010EC5
:104A90001FFA8EF0DFF808E1DEF80CC0E0470EE008
:104AA000199802280BD17B1C9AB2B1B2A8EB07036C
:104AB0005B1E98B23A4BD3F80CC0019BE04700272D
:104AC0001DE0002D1BDB5D450ED0DDF800C03CF87D
:104AD0001520B1B2A8F1010C1FFA8CF0DFF8C0C0AC
:104AE000DCF8043098470AE01998022807D1B1B2DF
:104AF000A8F1010290B22A4A5368019A98474D469C
:104B000008F10108059880457FF779AF5D4502D12E
:104B10001998022825D15D4504D0009830F8150079
:104B2000029001E001980290A7B1DDF808E01FFAB9
:104B30008EF307F1010E1FFA8EF2B1B2A8EB070E49
:104B4000AEF1010E1FFA8EF0DFF854E0DEF80CC073
:104B5000E04706E0B1B2059A90B2114A5368029A52
:104B60009847069888B10F490798085C0644A6EB59
:104B70000A010398814209DB0798401C07900A4903
:104B80000798085C00EB0A0600E0761C0898401CB9
:104B90000890039908988842FFF62CAF002054E74C
:104BA0004CC10020863801088A3801082DE9F043FD
:104BB0008BB080460C4615461E464FF0FF300490E1
:104BC00000BF0AAB012203A94046FEF7E2FC0746FC
:104BD0001FB101200BB0BDE8F0839DF80C00212827
:104BE0007BD02C2802D03B286CD174E0B4F80700AD
:104BF000ADF81800B4F80900ADF81A00B4F80B00CD
:104C0000ADF81C00B4F80D00ADF81E000AAB092287
:104C1000E11D4046FEF7BDFC07460FB10120D9E774
:104C2000E07B00F0800088B1204600F030FCE07BA3
:104C300000F00701022088401FFA80F94A46214609
:104C4000404600F0A1FB08B10120C3E79DF8140025
:104C500002280BD1079800909DF820008DF80400E1
:104C6000224631462846069BFFF704FD9DF81400B6
:104C70000499CDE90010B4F80900304483B2B4F8C7
:104C80000700284482B221464046FFF783FE17E022
:104C90000AAB012209A94046FEF77BFC9DF82400DF
:104CA00000B910E0D8F838000A909DF824200A983E
:104CB00081180A4600234046FDF75FFF00B102E07D
:104CC000E6E70AE014E000BF9DF8240008B10120E7
:104CD00080E700207EE702207CE705AB04AA21469E
:104CE000404600F071FB07460FB1012072E701E07A
:104CF00001206FE700BF9DF80C003B287FF461AFF7
:104D0000002067E72DE9FC4105460E4617466B4635
:104D1000012201A92846FEF73CFC9DF8040010B3CF
:104D2000C6B19DF80400B8420CDDAC6B9DF80400E0
:104D300021180A4600232846FDF71FFF9DF80400AE
:104D4000BDE8FC816B469DF8042031462846FEF7FD
:104D500020FC08E0AC6B9DF8040021180A460023F3
:104D60002846FDF70AFF9DF80400E9E7F8B5054677
:104D70000C466B46072221462846FEF70AFC0646EB
:104D80000EB10120F8BD207900F0800078B12079C3
:104D900000F0070102208840A4F81004B4F81024A1
:104DA0002146284600F0F0FA08B10120EAE7002089
:104DB000E8E72DE9F04180460C469DE1D4F8140463
:104DC00000F54050D0F8E40CA8427DD1D4F814048A
:104DD00000F54050D0F8E40CB0F5805F03DB4FF0F5
:104DE000FF30BDE8F081D4F8141401F581704FF460
:104DF0000052002106F062FA002606E0D4F81414EE
:104E000042F2021211448E55761CD4F8140400F5B7
:104E10004050D0F8E40CB042F0DC04F214442068B6
:104E200000F54050D0F8D80C401C216801F54051E5
:104E3000C1F8D40C206800F54050D0F8E40C4100D3
:104E4000206800F54050C0F8E01C206800F5405094
:104E5000D0F8E40C801C216801F54051C1F8DC0C4D
:104E6000206843F202110144A4F2144400F54050BA
:104E7000C0F8BC1C00BF2146404600F047F9D4F8FA
:104E8000141401F54051C1F8EC0CD4F8140400F5E9
:104E90004050D0F8EC1CD4F8140400F54050D0F881
:104EA000E40C8142E7D0D4F8140400F54050D0F867
:104EB000EC1CD4F8140400F54050C0F8F01CD4F8F1
:104EC000140400F5405000E002E0D0F8EC0C88E754
:104ED000D4F8140400F54050D0F8E80CA84202D1F0
:104EE0006FF001007DE72F46D4F8140400F5405020
:104EF000D0F8DC0CA8421EDC04F21444206800F553
:104F0000405090F8EC2C206800F54050D0F8BC3CA4
:104F1000206800F54050D0F8BC1C491C206800F502
:104F20004050C0F8BC1C1A702068A4F2144400F56C
:104F30004050D0F8F05C3AE004F21444206842F2A9
:104F400002110844425D206800F54050D0F8BC3C96
:104F5000206800F54050D0F8BC0C401C216801F5D9
:104F60004051C1F8BC0C1A702068A4F2144400F53A
:104F7000817030F91500A84201D1284631E7D4F8F4
:104F8000140400F54050D0F8BC0CD4F8141443F2CB
:104F900002121144401A40F6B831884201D3284623
:104FA0001FE7D4F8140400F5817030F91550D4F8D7
:104FB000140400F54050D0F8E40CA842BCDD04F223
:104FC0001444206842F202110844425D206800F552
:104FD0004050C0F8EC2C206800F54050D0F8BC3CA4
:104FE000206800F54050D0F8BC0C411C206800F54A
:104FF0004050C0F8BC1C1A702068A4F2144400F59C
:105000004050D0F8DC0C0546B0F5805F52DA04F26F
:105010001444206800F54050B0F8F00C01B220684C
:1050200000F5817020F81510206800F5405090F8C8
:10503000EC0C216842F2021211444855206800F538
:105040004050D0F8DC0C401C216801F54051C1F8FB
:10505000DC0C206800F54050D0F8DC1C2068A4F27D
:10506000144400F54050D0F8E00C814222DBD4F823
:10507000140400F54050D0F8E00CB0F5805F19DA68
:10508000D4F8140400F54050D0F8E00C4100D4F8F6
:10509000140400F54050C0F8E01CD4F8140400F5E6
:1050A0004050D0F8D40C401CD4F8141401F54051F1
:1050B000C1F8D40CD4F8140400F54050C0F8F07CCA
:1050C000D4F8140400F54050D0F8BC0CD4F81414F3
:1050D00043F20212114488420ED9D4F8140400F5A8
:1050E0004050D0F8BC0C401ED4F8141401F54051C7
:1050F000C1F8BC0C007874E62146404600F006F882
:10510000051EBFF65BAE28466BE600002DE9F047B2
:1051100082460C46D4F8140400F54050D0F8D00C68
:1051200070B10021D4F8140400F54050C0F8D01C30
:10513000D4F8140400F54050D0F8E40CBDE8F08732
:10514000D4F8140400F54050D0F8C01CD4F814046E
:1051500000F54050D0F8D40C01EB0009D4F8140449
:1051600000F54050D0F8C40C48455FDCD4F8140476
:1051700000F54050D0F8C80C10B14FF0FF30DDE71B
:1051800004F21444216843F6CC404058801E085C69
:105190000870216843F6CC404058401E085C4870B7
:1051A0002068A4F21444811C4FF496725046FFF715
:1051B000A9FD071E06D10121D4F8140400F54050C2
:1051C000C0F8C81C002F02DA4FF0FF30B6E7B81C59
:1051D00004F21444216801F54051C1F8CC0C206858
:1051E00000F54050D0F8C01C206800F54050D0F8C1
:1051F000C40C081A1030216801F54051C1F8C00CE8
:10520000B81CC100206800F54050C0F8C41C2068DC
:1052100000F54050D0F8C01C2068A4F2144400F5FA
:105220004050D0F8D40C01EB000900BF4FEAE90868
:10523000D4F8140400F54050D0F8C00CC510454512
:1052400003D1D4F81404465D19E0681C404508D128
:10525000D4F81404415D0246681C105C41EA002643
:105260000DE0D4F81404415D0246681C105C41EA6C
:105270000021D4F81424A81C105C41EA004604F272
:105280001444206800F5405090F8C00C00F007016D
:1052900046FA01F0216801F54051D1F8D41C0C4ABE
:1052A00032F8111000EA0106206800F54050D0F8ED
:1052B000C01C206800F54050D0F8D40C0144206890
:1052C000A4F2144400F54050C0F8C01C304635E745
:1052D0006638010810B501460878C2084878830886
:1052E0008878C40804EB431000EBC22080B210BDE4
:1052F00070B504460D4604F21444206843F6F442A7
:10530000002105F0DBFF206800F54050C0F8D85CB4
:10531000681C216801F54051C1F8D40C0120A84057
:10532000216801F54051C1F8E40C0120A840401C5F
:10533000216801F54051C1F8E80C0120A840801C0B
:10534000216801F54051C1F8DC0C0120A840410062
:10535000206800F54050C0F8E01C0121206800F5ED
:105360004050C0F8D01C0221206800F54050C0F821
:10537000CC1C206843F202110144A4F2144400F54D
:105380004050C0F8BC1C70BD2DE9FC4180460E4663
:105390001746002414E06B46032201A94046FEF79D
:1053A000F8F8054615B10120BDE8FC8101A8FFF71A
:1053B00091FF06F1100101EB44010880601C84B2EA
:1053C000BC42E8DB0020EFE7FEB507460C46154679
:1053D0001E4601AB012202A93846FEF7DAF89DF815
:1053E0000800012806D0F92811D0FE2804D0FF2893
:1053F00038D100E000BF00BF00BF4FF48072002131
:105400003846FFF77FFC0028F7DC0020FEBD0422B1
:1054100069463846FFF776FC042801D00120F5E7FD
:105420009DF801009DF8021040EA0120A4F8120442
:105430009DF80000C0F3820030709DF8000000F07D
:10544000010010B19DF80300286001AB012202A900
:105450003846FEF79EF89DF8080008B10120D5E710
:105460000020D3E70120D1E70146002000BF0BE078
:1054700001F5047202EB4002138801F1100202EB05
:1054800040021380421C90B2FF28F1DD70470146B4
:10549000002000BF0BE001F1100202EB4002138874
:1054A00001F5047202EB40021380421C90B2FF2807
:1054B000F1DD70472DE9F04F87B004460E46904667
:1054C000D4F800A0D4F804B000200690207BC117C7
:1054D00000EBD1614911A0EB41170120B840401EFB
:1054E000216E0140019131E094F8640008B1FF257C
:1054F00026E0BAF1000F11D1D4F808B04FF4806261
:1055000059462046D4F88C3098478246BAF1000FAD
:1055100004D16FF0010007B0BDE8F08F1BF8015B0C
:10552000AAF1010A069830B1002006900DB184F866
:105530006450FF2504E0FF2D02D10120069005E014
:10554000019845EA00200190083700BF102FCBD307
:10555000C4F800A0C4F804B001982066A7F10A01BD
:10556000019820FA01F5B8F1000F0ED004F16C009B
:1055700050F8260030F815504FF6FF70854211D0D4
:10558000A7EB15202073E8B2C5E704F1740050F8CA
:105590002600455DFF2D05D0A7EB1510207305F003
:1055A0000F00B8E704F1200000EBC60050F8280017
:1055B0000A30059004F1300000EBC60050F82810C6
:1055C00004F1650000EB460010F8080001EB400014
:1055D000039004F1400000EBC60050F8281004F1DD
:1055E000650000EB460010F80800084404904FF0F6
:1055F0000B0923E00598007802900598401C05905F
:105600000298C8B1A7EB0901019820FA01F500BF83
:10561000039830F8021B0390A94205D1A7EB0900BB
:1056200020730498007876E70498401C0490029850
:10563000401E02900028EBD109F10109B9F1100FC9
:10564000D8D96FF0050066E770B505460C462969A4
:1056500001F1340003F06FFFA060296901F1380007
:1056600003F075FFC4E90401286990F8210000F0F7
:105670000200E0710020E06170BD2DE9F74F82B0BB
:1056800004461746032F03DD052005B0BDE8F08F63
:105690006773A07B4FEAC009E07B4FEAC00A002194
:1056A000A182E18221838B46CDF804B0002500263B
:1056B0002FE04FF0000828E0608BA0B15846411C55
:1056C0001FFA81FB618B88420DD10198421C92B276
:1056D00001462046019207F006F805460DB128461E
:1056E000D3E74FF0010B204604F0D0FD05460DB185
:1056F0002846CAE7334642462046039904F0ACFEEA
:1057000005460DB12846C0E7C844A08B4045D3D814
:105710005644E08BB042CCD82846B6E72DE9FF4F7F
:1057200081B0044694212046FBF7DBF8039844F847
:10573000840F049860600298A0600E98E060843C3A
:105740004FF480612046FBF7F0FB0546A0601DB9D1
:10575000032005B0BDE8F08F4FF00009CA4600BF36
:10576000012229462046D4F88C309847012801D0E0
:105770000220EEE709F10109287840EA0A201FFA21
:1057800080FA4FF6D8708245EAD100BF042229463C
:105790002046D4F88C309847042801D00220D8E75E
:1057A0006878297840EA012AE878A97840EA012651
:1057B000022E03D9FF20B0EB2A2F01D00620C8E724
:1057C000B61E301D81440AF0FF00C0381E2872D278
:1057D000DFE800F00FF3F2F178F0EFEE71EDECEBB3
:1057E00071EAE9E8717171717171717171E7AC926F
:1057F0007162B6F5806F01D90420AAE732462946C6
:105800002046D4F88C309847B04201D00220A0E75F
:105810002879E97840EA0120A083A878697840EAED
:105820000120E0836879E074E07C032804D0E07C08
:10583000012801D008208CE7002729E007EB47006A
:10584000C01D15F800808FB9B8F1110F07D0B8F15D
:10585000220F04D0B8F1210F01D0082079E74FEAD8
:105860002810A07308F00F00E07304E0B8F1110FE6
:1058700001D008206DE707EB47000830295C04F1F0
:105880001000C155C05D032801DD082061E77F1CC1
:10589000E07CB842D2D8EFE0B6F5806F01D90420A1
:1058A00057E7324629462046D4F88C309847B04214
:1058B00002D002204DE7D4E06878297840EA012040
:1058C0006083D9E0B6F5806F01D9042041E7324604
:1058D00029462046D4F88C309847B04201D00220A7
:1058E00037E7324629462046FCF77EF800900098BC
:1058F00008B100982DE7BFE0B6F5806F01D904200C
:1059000027E7324629462046D4F88C309847B042E3
:1059100001D002201DE7324629462046FCF7BAFA9C
:105920000090009808B1009813E7A5E0B6F5806FE5
:1059300001D904200DE7324629462046D4F88C30A0
:105940009847B04201D0022003E7A08B08B1E08B5A
:1059500008B90620FDE62878E17C884201D00820BD
:10596000F7E6002734E07800801C15F80080B8F1D5
:10597000000F04D0B8F1110F01D00820E9E60FB1F3
:10598000012000E00020834604F1200050F83B0095
:1059900028B104F1200000EBCB00406870B906206C
:1059A000D7E65CE05AE058E056E054E052E050E0C0
:1059B0004EE04CE04AE048E046E044E004F11000EC
:1059C000C15D403050F8210008B90620C1E67F1CB7
:1059D000E07CB842C7D8E07BA17B00FB01FBBBF1B8
:1059E000000F01D10620B4E6402101EBCB16FF2EBB
:1059F00000D88E0031462046FBF797FAE067E06F4B
:105A000008B90320A5E60BF10200C1012046FBF70F
:105A10008CFAC4F88000D4F8800008B9032098E616
:105A2000C9F30900B0F1000908D0C9F5806205EB9F
:105A300009012046D4F88C309847206005EB090016
:105A40006060002085E600BF00BF00BF00BF00BF50
:105A500000BF00BF00BF00BF00BF00BF00BF0820E5
:105A600077E6324600212046D4F88C309847B04281
:105A700001D002206DE600BF88E6000010B50648A0
:105A8000006806F099FB0548006806F095FB04489D
:105A9000006806F091FB10BD980000209C000020DB
:105AA000A00000202DE9F84305460E461446D5F81F
:105AB00090904EB16B46224631464846FDF769FD4F
:105AC000BDF80000BDE8F883D9E90E20171940F1B0
:105AD00000033A464846FDF750F808B92046F1E77A
